:020000040800F2
:10000000C8040020E1020008450300084703000877
:100010004B0300084F0300085303000800000000D2
:10002000000000000000000000000000570300086E
:1000300059030008000000005B0300085D0300088E
:100040006503000867030008690300086B030008E4
:100050006D0300086F0300087103000873030008B4
:100060007503000877030008790300087B03000884
:100070007D0300087F030008810300088303000854
:10008000850300088703000889030008FB020008B5
:10009000FB020008FB020008FB02000893030008B3
:1000A0009503000897030008990300089B030008C4
:1000B0009D030008A5030008A7030008AF0300087C
:1000C000B1030008B3030008B5030008B703000834
:1000D000B9030008BB030008BD030008BF03000804
:1000E000C1030008C3030008C5030008DFF80CD0F3
:1000F00002F0BAFE004800471B030008C8040020B5
:100100000CB50020019000906C48006840F48030ED
:100110006A49086000BF6948006800F40030009038
:100120000198401C0190009818B90198B0F5A06F93
:10013000F1D16248006800F4003010B10120009055
:1001400001E0002000900098012843D15C4800683D
:1001500040F010005A4908600846006820F003008B
:1001600008600846006840F0020008605348406894
:10017000524948600846406848600846406840F474
:10018000806048600846406820F47C10486008465B
:10019000406840F4E81048600846006840F080700D
:1001A000086000BF4548006800F000700028F9D0E2
:1001B0004248406820F003004049486008464068D3
:1001C00040F00200486000BF3C48406800F00C006E
:1001D0000828F9D10CBD10B5FFF792FF10BD10B57E
:1001E0003648006840F0010034490860084640681D
:1001F000344908403149486008460068324908409F
:100200002E4908600846006820F4802008600846EF
:10021000406820F4FE0048604FF41F008860FFF73C
:10022000DAFF4FF000602949086010BD10B50021C9
:1002300000200022214B5B6803F00C0121B104294E
:1002400006D0082928D107E0214B224C236027E063
:100250001F4B204C236023E0184B5B6803F47010A5
:10026000164B5B6803F48032022303EB904022B903
:10027000194B4343174C23600DE0104B5B6803F4AC
:10028000003323B1144B4343124C236003E0104B63
:100290004343104C236003E00D4B0E4C236000BF22
:1002A00000BF064B5B68C3F303130C4CE15C094BC6
:1002B0001B68CB40074C236010BD000000100240BB
:1002C000002002400000FFF8FFFFF6FE08ED00E00E
:1002D00000127A000000002000093D000400002008
:1002E0000648804706480047FEE7FEE7FEE7FEE7D0
:1002F000FEE7FEE7FEE7FEE7FEE7FEE7DF010008B8
:10030000ED00000806E04FF6FF7100E0491E0029ED
:10031000FCD1401E0028F6D1704702F049FD02F0E2
:100320007CFD00F013FD00F05FF800F040F900F0F4
:1003300076F842F2107000F0D3FC02E02820FFF7BC
:10034000E1FFFBE7704700BFFEE700BFFEE700BF2D
:10035000FEE700BFFEE770477047704710B500F03A
:10036000ECFC10BD7047704770477047704770478E
:1003700070477047704770477047704770477047C5
:1003800070477047704770477047704770477047B5
:1003900070477047704770477047704710B500F05E
:1003A000D1F910BD704710B500F005FB10BD7047C6
:1003B0007047704770477047704770477047704785
:1003C0007047704770477047704770477047704775
:1003D0007047704770477047704770477047704765
:1003E000704770477047704708B50121182000F02A
:1003F000DDFE0220ADF8000003208DF80200102081
:100400008DF803006946FD4801F072FA4FF4005080
:10041000ADF800006946FA4801F06AFA08BD00B577
:1004200087B00121042000F0CEFE0121082000F059
:10043000BDFE4020ADF8180003208DF81A002820DA
:100440008DF81B0006A9ED4801F052FA8020ADF8A6
:10045000180003208DF81A0028208DF81B0006A92B
:10046000E64801F045FA4FF48070ADF8180003201B
:100470008DF81A0028208DF81B0006A9DF4801F02E
:1004800037FA4FF40070ADF8180003208DF81A0009
:1004900028208DF81B0006A9D84801F029FA48F653
:1004A0009F40ADF810000120ADF80C000020ADF821
:1004B0001200ADF80E008DF8140003A9D14801F028
:1004C00039FC0020ADF80000ADF802000120ADF8C5
:1004D00004000020ADF80600ADF808006946C948E0
:1004E00001F0BBFE0221C74802F046FA01220221B8
:1004F000C44801F096FF0420ADF800000020ADF8DC
:1005000002000120ADF804000020ADF80600ADF8AF
:1005100008006946BB4801F0A0FE0421B94802F07A
:100520002BFA01220421B74801F07BFF0820ADF827
:1005300000000020ADF802000120ADF8040000200A
:10054000ADF80600ADF808006946AE4801F085FE3A
:100550000821AC4802F010FA01220821A94801F054
:1005600060FF0C20ADF800000020ADF80200012073
:10057000ADF804000020ADF80600ADF808006946AB
:10058000A04801F06AFE10219E4802F0F5F9012210
:1005900010219C4801F045FF01221146994801F0C5
:1005A00040FF0121974801F021FF07B000BD00B5D1
:1005B00087B00121084600F006FE0121042000F06A
:1005C000F5FD0120ADF8180003208DF81A00282051
:1005D0008DF81B0006A98C4801F08AF90220ADF8BD
:1005E000180003208DF81A0028208DF81B0006A99A
:1005F000854801F07DF90420ADF8180003208DF83E
:100600001A0028208DF81B0006A97F4801F070F918
:100610000820ADF8180003208DF81A0028208DF866
:100620001B0006A9784801F063F948F69F40ADF831
:1006300010000120ADF80C000020ADF81200ADF85C
:100640000E008DF8140003A94FF0804001F072FBFA
:100650000020ADF80000ADF802000120ADF8040064
:100660000020ADF80600ADF8080069464FF0804064
:1006700001F0F3FD0221480702F07EF90122022178
:10068000480701F0CEFE0420ADF800000020ADF8D0
:1006900002000120ADF804000020ADF80600ADF81E
:1006A000080069464FF0804001F0D7FD042108079B
:1006B00002F062F901220421080701F0B2FE0820CD
:1006C000ADF800000020ADF802000120ADF80400F4
:1006D0000020ADF80600ADF8080069464FF08040F4
:1006E00001F0BBFD0821C80602F046F901220821ED
:1006F000C80601F096FE0C20ADF800000020ADF811
:1007000002000120ADF804000020ADF80600ADF8AD
:10071000080069464FF0804001F09FFD10218806D7
:1007200002F02AF901221021880601F07AFE012246
:100730001146900701F075FE0121880701F056FE71
:1007400007B000BD10B50121880702F018F948B1C3
:100750000121880702F024F92C480068401C2B492D
:10076000086010BD0221480702F009F9002857D09F
:100770000221480702F014F90121234801F04BF946
:10078000012811D1800702F0DBF82149086001211E
:100790001A4801F05AF90221480701F0D9FF1B4815
:1007A00000681C490860DCE74FF0804002F0C8F8A0
:1007B000194908600846016816480068134A12681B
:1007C000101A40F26542504301EB4010104909688D
:1007D000401A12490860084600689101884202D90F
:1007E00008460E4908600121044801F030F9002153
:1007F0004FF0804001F0ACFFB3E70000000C014077
:100800000010014000080040000801402C000020BA
:1008100048000020A8000020680000208800002078
:100820000421080702F0ABF8E0B30421080702F046
:10083000B7F80221FA4801F0EEF801280DD180073F
:1008400002F081F8F74948600221480701F092FF61
:10085000F5480068F549486083E74FF0804002F0B2
:1008600072F8F349486008464168F0484068EE4A2B
:100870001268101A40F26542504301EB4010E949FA
:100880004968401AEB49486008464068910188422F
:1008900002D90846E749486000214FF0804001F046
:1008A00069FF5EE7FFE70821C80602F068F8E0B3D9
:1008B0000821C80602F074F80421D94801F0ABF809
:1008C00001280DD1800702F041F8D6498860022145
:1008D000480701F069FFD4480068D449886040E7C0
:1008E0004FF0804002F032F8D149886008468168B4
:1008F000CE488068CC4A1268101A40F265425043D4
:1009000001EB4010C7498968401ACA498860084607
:1009100080689101884202D90846C6498860002152
:100920004FF0804001F040FF1BE7FFE710218806F1
:1009300002F025F8E0B31021880602F031F8082112
:10094000B74801F068F801280DD1800702F001F8DE
:10095000B449C8600221480701F040FFB24800686E
:10096000B249C860FDE64FF0804001F0F2FFB049A7
:10097000C8600846C168AD48C068AB4A1268101A22
:1009800040F26542504301EB4010A649C968401A45
:10099000A849C8600846C0689101884202D9084643
:1009A000A449C86000214FF0804001F017FFD8E64D
:1009B000FFE700BFD5E610B501219F4801F0DFFF3A
:1009C00048B101219C4801F0EBFF9C480068401CA5
:1009D0009A49086010BD0221974801F0D0FF002815
:1009E0003AD00221944801F0DBFF4021944801F005
:1009F00012F801280DD1904801F0A2FF8949086141
:100A000002218D4801F0A4FE8C48006887490861E6
:100A1000E0E7894801F094FF8549086108460169CB
:100A200082480069854A1268101A40F265425043B4
:100A300001EB40107B490969401A7E49086108466C
:100A400000699101884202D908467A49086100216B
:100A5000794801F07DFEBDE70421774801F08FFF62
:100A6000D0B30421744801F09BFF8021744800F04A
:100A7000D2FF01280DD1704801F065FF6949486136
:100A800002216D4801F076FE6C48006867494861B4
:100A9000A0E7694801F057FF654948610846416988
:100AA00062484069654A1268101A40F26542504334
:100AB00001EB40105B494969401A5E4948610846AC
:100AC00040699101884202D908465A49486100218B
:100AD000594801F04FFE7DE7FFE70821564801F035
:100AE0004EFFD8B30821544801F05AFF4FF48071EB
:100AF000534800F090FF01280DD14F4801F026FF28
:100B00004849886102214C4801F04EFE4B4800687C
:100B1000464988615EE7484801F018FF444988610A
:100B20000846816941488069444A1268101A40F2B7
:100B30006542504301EB40103A498969401A3D49EA
:100B40008861084680699101884202D9084639497E
:100B500088610021384801F027FE3BE7FFE71021BC
:100B6000354801F00CFFD8B31021334801F018FFCD
:100B70004FF40071324800F04EFF01280DD12E488D
:100B800001F0E7FE2749C86102212B4801F026FE4B
:100B90002A4800682549C8611CE7274801F0D9FEAA
:100BA0002349C8610846C1692048C069234A1268C0
:100BB000101A40F26542504301EB40101949C969CF
:100BC000401A1C49C8610846C0699101884202D98F
:100BD00008461849C8610021174801F0FFFDF9E6F1
:100BE000FFE700BFF6E610B5002416480078B0B95C
:100BF00048F6A04000F074F81348D0E9001048F619
:100C0000A043C91840F100000F4AC2E900100120BA
:100C10000C49087002210A4800F019FF53E015E062
:100C200000080140480000202C000020A8000020FF
:100C300068000020880000200008004030000020EC
:100C4000000C014018000020200000201E48007801
:100C5000082825DA1D481C49097850F8210048F673
:100C6000A041884201D20C4608E01848164909788C
:100C700050F8210048F6A041C1EB4004204600F0A6
:100C80002FF81348D0E90020121940F10000104954
:100C9000C1E900200C480078401C0B4908700BE0AB
:100CA0000B4909680B4A501A00F01AF80020084A4C
:100CB0001060506004490870002007490870022144
:100CC000064800F0C2FE10BD280000208800002069
:100CD0002000002000F9150018000020000C014041
:100CE00070B504462146B1F1807F00D31DE021F0AC
:100CF0007F40401E4FF0E022506150170F22002825
:100D000007DA13071E0E0F4B00F00F052D1F5E555F
:100D100003E013071D0E0C4B1D5400BF00204FF0C5
:100D2000E02290610720106100BF042000F0B1F8BC
:100D300000204FF0E021886170BD10B5FFF753FF30
:100D400010BD000018ED00E000E400E000B585B043
:100D50000121880300F02AFA0121042000F026FA7C
:100D60004FF40070ADF8000003208DF80200182049
:100D70008DF8030069461D4800F0BAFD4FF480600D
:100D8000ADF8000003208DF8020004208DF8030068
:100D90006946164800F0ACFD4FF4E13001900020A8
:100DA000ADF80800ADF80A00ADF80C00ADF8100081
:100DB0000C20ADF80E0001A90D4801F038FE01210C
:100DC0000B4801F0C0FE05B000BD70B504460D46ED
:100DD000E1B2074801F024FF00BF8021044801F080
:100DE0008DFF0028F9D0204670BD000000080140AA
:100DF0000038014031490143314A1160704770B5F4
:100E0000002100230F22C47804B32D4C246804F47D
:100E1000E064C4F5E064210AC1F10403CA404478E7
:100E200004FA03F18478144021430901254C067823
:100E3000A155047804F01F050124AC4005786D111C
:100E4000AD0005F1E025C5F8004109E0047804F0A3
:100E50001F050124AC401C4D0678761145F826404C
:100E600070BD1A4A0A400243154B1B1F1A60704797
:100E700039B1134A121D12680243114B1B1D1A602F
:100E800006E00F4A121D126882430D4B1B1D1A60AB
:100E90007047042808D14FF0E021096941F00401AE
:100EA0004FF0E022116107E04FF0E021096921F0E5
:100EB00004014FF0E0221161704700000000FA05C4
:100EC0000CED00E000E400E080E100E080FFFF1FA7
:100ED000DF48006840F00100DD49086008464068CE
:100EE000DC490840DA49486008460068DA490840A9
:100EF000D74908600846006820F48020086008464A
:100F0000406820F4FE0048604FF41F00886070477E
:100F1000CF49096821F48031CD4A11601146096832
:100F200021F480211160B0F5803F03D0B0F5802F0F
:100F30000ED106E0C649096841F48031C44A116007
:100F400007E0C349096841F4A021C14A116000E0EB
:100F500000BF00BF704710B50146002200230020EB
:100F60004A11012A02D1BA4C236806E0022A02D1B2
:100F7000B74C236A01E0B64C636A01F01F020124FA
:100F800094401C400CB1012000E0002010BD38B599
:100F9000002000900024002500BF3120FFF7DBFF78
:100FA00005460098401C00900098B0F5A06F01D055
:100FB000002DF2D03120FFF7CEFF08B1012400E070
:100FC0000024204638BD01460020A14A106820F0C8
:100FD000F80040EAC10010607047A04908607047FF
:100FE000024600209A4B586820F47C1042EA010324
:100FF0001843974B586070479849086670470146F8
:101000000020934A506820F0030008435060704766
:101010008F48406800F00C007047014600208C4A61
:10102000506820F0F00008435060704701460020EF
:10103000874A506820F4E0600843506070470146DA
:101040000020834A506820F4605040EAC10050609C
:10105000704729B17E4A527A02437D4B5A7204E0AE
:101060007B4A527A82437A4B5A7270477B49D83115
:101070000860704701460020754A506820F44040DF
:101080000843506070470021714A20321170704A45
:1010900082F82010012802D004280AD104E001219E
:1010A0006B4A2032117005E00521694A2032117027
:1010B00000E000BF00BF704769490860704764499D
:1010C000096A0143624A1162704765494439086000
:1010D000704730B500210022002400235C4D6D686C
:1010E00005F00C0121B1042905D0082923D105E020
:1010F0005C4D056022E05B4D05601FE0544D6D685E
:1011000005F47012524D6D6805F48034022505EB2C
:1011100092421CB9544D554305600BE04C4D6D682F
:1011200005F400351DB1504D5543056002E04D4DAD
:101130005543056002E04B4D056000BF00BF444DC4
:101140006D6805F0F0010909484D6B5C0568DD40EC
:1011500045603F4D6D6805F4E061090A434D6B5CE5
:101160004568DD4085603A4D6D6805F46051C90AF7
:101170003E4D6B5C4568DD40C560354D6D6805F4DE
:101180004041890B3A4D6B5CC568B5FBF3F50561D1
:1011900030BD29B12E4A526902432D4B5A6104E0F9
:1011A0002B4A526982432A4B5A61704729B1284A17
:1011B00092690243264B9A6104E0254A9269824370
:1011C000234B9A61704729B1214AD2690243204BCF
:1011D000DA6104E01E4AD26982431D4BDA6170472E
:1011E00029B11B4AD2680243194BDA6004E0184A5D
:1011F000D2688243164BDA60704729B1144A1269EB
:101200000243134B1A6104E0114A12698243104BE6
:101210001A61704712494039086070470F49C86425
:1012200070470B49C87170470948406A40F08070A8
:1012300007494862704701460020054A92680A4003
:101240000AB1012000E00020704701498872704710
:10125000001002400000FFF8FFFFF6FE00004242CF
:101260008004424200127A0000093D003400002050
:101270004400002001460020FE4A106800F03800BB
:10128000084310607047FB49096821F00801F94ADA
:10129000116011460968014311607047F5490968FA
:1012A00021F01001F34A11601146096801431160F1
:1012B0007047F148EF494860F04848607047EE4891
:1012C000EC494860ED4848607047EA48006940F0E2
:1012D0008000E84908617047E648006940F08000F6
:1012E000E449086170470420E249C96801F001013E
:1012F00009B101200EE0DF49C96801F0040109B11C
:10130000022007E0DB49C96801F0100109B10320A0
:1013100000E00420704700B502460423FFF7E3FF16
:10132000034603E0FFF7DFFF0346521E012B01D106
:10133000002AF7D102B90523184600BD30B504468E
:1013400004254FF43020FFF7E6FF0546042D17D1A2
:10135000C848006940F00200C64908610846446177
:10136000006940F0400008614FF43020FFF7D3FFE0
:101370000546C048006941F6FD710840BD49086155
:10138000284630BD10B504244FF43020FFF7C3FFCA
:101390000446042C16D1B748006940F00400B54952
:1013A00008610846006940F0400008614FF43020B1
:1013B000FFF7B1FF0446AF48006941F6FB710840F2
:1013C000AC490861204610BD00B502460423FFF772
:1013D0008AFF034603E0FFF786FF0346521E012BF8
:1013E00001D1002AF7D102B90523184600BD10B576
:1013F00004244FF43020FFF7E7FF0446042C16D1F5
:101400009C48006940F004009A4908610846006958
:1014100040F0400008614FF43020FFF7D5FF04464C
:101420009448006941F6FB710840924908612046E2
:1014300010BD00208F49C96901F0020109B10120E6
:1014400000E00020704730B5A5250424FFF7F1FF28
:1014500000B100254FF43020FFF75DFF0446042C57
:101460003AD1854883498860844888600846006985
:1014700040F0200008610846006940F04000086123
:101480004FF43020FFF747FF0446042C1BD1794866
:10149000006941F6DF710840764908610846006935
:1014A00040F01000086176480580E002FFF733FF46
:1014B0000446052C10D06F48006941F6EF710840D2
:1014C0006C49086108E0052C06D06A48006941F6BD
:1014D000EF71084067490861204630BD78B506467F
:1014E0000C46042500200090E802FFF714FF054693
:1014F000042D24D15F48006940F001005D49086176
:101500003480E802FFF707FF0546042D10D1B01C18
:101510000090200C00990880E802FFF7FCFE0546C9
:101520005448006941F6FE7108405249086106E0DE
:101530005048006941F6FE7108404E49086128464E
:1015400078BD70B504460D460426F002FFF7E3FEB1
:101550000646042E11D14748006940F00100454974
:1015600008612580F002FFF7D6FE06464148006973
:1015700041F6FE7108403F490861304670BD70B5C4
:1015800005460E460424E002FFF7C5FE0446042C7F
:1015900017D139483749886038488860084600695B
:1015A00040F0100008612E80E002FFF7B4FE044610
:1015B000052C06D02F48006941F6EF7108402D49EF
:1015C0000861204670BD2DE9F04304464FF6FF76D2
:1015D0003746B046B1460425E443E6B2C4F30727D4
:1015E000C4F307484FEA1469E802FFF794FE054682
:1015F000042D49D120481F4988602048886008464A
:10160000006940F010000861FF2E06D01C48083029
:101610000680E802FFF77FFE0546042D08D1FF2F64
:1016200006D017480A300780E802FFF774FE054627
:10163000042D0AD1B8F1FF0F07D011480C30A0F8E3
:101640000080E802FFF767FE0546042D0AD1B9F1D4
:10165000FF0F07D00A480E30A0F80090E802FFF70D
:101660005AFE0546052D0FD00248006941F6EF717C
:10167000084007E00020024023016745AB89EFCD19
:1016800000F8FF1F664908612846BDE8F08330B5C1
:10169000054604244FF43020FFF73DFE0446042C99
:1016A00041D160485E4988605F48886008460069AB
:1016B00040F0200008610846006940F040000861E1
:1016C0004FF43020FFF727FE0446042C22D1544863
:1016D000006941F6DF710840514908610846006918
:1016E00040F0100008611DB100205049088002E060
:1016F000A5204E4908804FF43020FFF70CFE044629
:10170000052C10D04648006941F6EF710840444965
:10171000086108E0052C06D04148006941F6DF71F8
:1017200008403F490861204630BDF0B505460E46E9
:10173000174604243B483A4988603B488860E002E9
:10174000FFF7E9FD0446042C19D13548006940F043
:1017500010003349086147F0F8003043284333490B
:10176000891C0880E002FFF7D6FD0446052C06D050
:101770002B48006941F6EF7108402949086120466D
:10178000F0BD2748C069800870472548006A704747
:1017900000202349096801F0200109B1012000E07F
:1017A0000020704729B11E4A126902431C4B1A617E
:1017B00004E01B4A12698243194B1A6170470146C3
:1017C0000020012908D1164AD26902F001020AB1AB
:1017D000012008E0002006E0114AD2680A400AB160
:1017E000012000E0002070470D49C86070470420C8
:1017F0000B49C96801F0010109B101200EE0084957
:10180000C96801F0040109B1022007E00449C96870
:1018100001F0100109B1032000E00420704700002E
:101820000020024023016745AB89EFCD00F8FF1F80
:1018300010B50446CC48844208D101210420FFF7AA
:10184000CFFC00210420FFF7CBFC46E0C7488442D0
:1018500008D101210820FFF7C3FC00210820FFF771
:10186000BFFC3AE0C248844208D101211020FFF7B2
:10187000B7FC00211020FFF7B3FC2EE0BD488442E6
:1018800008D101212020FFF7ABFC00212020FFF729
:10189000A7FC22E0B848844208D101214020FFF78C
:1018A0009FFC00214020FFF79BFC16E0B3488442D8
:1018B00008D101218020FFF793FC00218020FFF751
:1018C0008FFC0AE0AE48844207D101218015FFF762
:1018D00087FC0021A015FFF783FC10BD10B5012186
:1018E0000846FFF77DFC00210120FFF779FC10BDC1
:1018F0002DE9F041024600250026002000230024A7
:10190000002791F803C00CF00F0591F803C00CF00C
:10191000100CBCF1000F03D091F802C04CEA050591
:1019200091F800C0BCF1000F31D0146800202BE00A
:101930004FF0010C0CFA00F3B1F800C00CEA0306FA
:101940009E4220D183004FF00F0C0CFA03F7BC43EA
:1019500005FA03FC4CEA040491F803C0BCF1280F1B
:1019600006D14FF0010C0CFA00FCC2F814C00AE0DA
:1019700091F803C0BCF1480F05D14FF0010C0CFAEF
:1019800000FCC2F810C0401C0828D1D31460B1F884
:1019900000C0BCF1FF0F34DD546800202EE000F1E0
:1019A000080C4FF0010808FA0CF3B1F800C00CEA7B
:1019B00003069E4221D183004FF00F0C0CFA03F76F
:1019C000BC4305FA03FC4CEA040491F803C0BCF1E3
:1019D000280F05D100F1080C08FA0CF8C2F81480A1
:1019E00091F803C0BCF1480F07D100F1080C4FF08B
:1019F000010808FA0CF8C2F81080401C0828CED361
:101A00005460BDE8F0814FF6FF71018002218170C2
:101A10000421C17070470246002093680B400BB14F
:101A2000012000E0002070470146886880B27047BE
:101A300002460020D3680B400BB1012000E00020DB
:101A400070470146C86880B27047016170474161C4
:101A500070470AB1016100E041617047C1607047A1
:101A60004FF480320A4382618161826182698269B6
:101A7000704702460020434B18684FF680731840A9
:101A800040EA021008433F4B186070473E49C86166
:101A90007047F0B50A46002300240021002500F01D
:101AA0000046B6F1004F02D1364EF16901E0354EE5
:101AB0007168C0F3034583B200F44016B6F5401FC9
:101AC00008D121F070612F4E766826F070662D4F98
:101AD0007E6012E000F48016B6F5801F06D1032662
:101AE00006FA05F4A14341F0706106E0460D3601A7
:101AF00003FA06F6B14341F0706122B1460D36019A
:101B000003FA06F6314300F00046B6F1004F02D169
:101B10001C4EF16101E01B4E7160F0BD30B500223A
:101B20008B071C0F0F2303FA04F2164B08338C109B
:101B300053F824309343134C08348D1044F8253067
:101B400023468C1053F824308C07240F00FA04F439
:101B500023430C4C08348D1044F8253030BD0A491D
:101B6000DC3108607047000000080140000C0140B3
:101B7000001001400014014000180140001C014009
:101B800000200140000001400000204210B5044642
:101B9000FE48844208D10121C014FFF721FB002137
:101BA000E014FFF71DFBC4E0B4F1804F08D1012120
:101BB0000846FFF722FB00210120FFF71EFBB8E0DB
:101BC000F348844208D101210220FFF716FB0021CF
:101BD0000220FFF712FBACE0EE48844208D101215D
:101BE0000420FFF70AFB00210420FFF706FBA0E01A
:101BF000E948844208D101210820FFF7FEFA0021BC
:101C00000820FFF7FAFA94E0E448844208D1012161
:101C10001020FFF7F2FA00211020FFF7EEFA88E01B
:101C2000DF48844208D101212020FFF7E6FA002195
:101C30002020FFF7E2FA7CE0DA48844208D1012153
:101C40004014FFF7CDFA00216014FFF7C9FA70E0E5
:101C5000D548844209D10121C804FFF7C1FA002107
:101C60004FF40020FFF7BCFA63E0D048844209D16A
:101C700001210805FFF7B4FA00214FF48010FFF7A7
:101C8000AFFA56E0CA48844209D101214805FFF75E
:101C9000A7FA00214FF40010FFF7A2FA49E0C54867
:101CA000844208D101214020FFF7A7FA00214020FB
:101CB000FFF7A3FA3DE0C048844208D1012180200B
:101CC000FFF79BFA00218020FFF797FA31E0BB482D
:101CD000844208D101218015FFF78FFA0021A01559
:101CE000FFF78BFA25E0B648844209D101210804A8
:101CF000FFF776FA00214FF48030FFF771FA18E011
:101D0000B048844209D101214804FFF769FA002153
:101D10004FF40030FFF764FA0BE0AB48844208D17F
:101D200001218804FFF75CFA00214FF48020FFF7BF
:101D300057FA10BD00220288944B98420ED0994B5E
:101D400098420BD0B0F1804F08D0914B984205D00B
:101D5000904B984202D0904B984204D14FF68F732B
:101D60001A404B881A438D4B984207D08C4B9842AF
:101D700004D04FF6FF431A40CB881A4302808B8869
:101D800083850B880385814B98420BD0854B984205
:101D900008D08B4B984205D08A4B984202D08A4B90
:101DA000984201D10B7A038601238382704770B574
:101DB000002400220023058C4FF6FE763540058472
:101DC000028C8388048B4FF68F752C40B51E2C40F7
:101DD0000D882C43751E2A400D892A434D882A43BD
:101DE0006A4DA8420BD06F4DA84208D0744DA8424E
:101DF00005D0744DA84202D0734DA84213D14FF6BE
:101E0000F7752A404D892A434FF6FB752A408D8885
:101E10002A434FF6FF652B404FF6FF552B408D8927
:101E20002B43CD892B4383800483CD888586028410
:101E300070BD70B5002400220023058C4FF6EF76AC
:101E400035400584028C8388048B48F6FF752C404E
:101E50004FF6FF452C400D884FF6FF7606EA052524
:101E60002C434FF6DF752A400D8906EA05152A43F3
:101E70004D8806EA05152A43444DA84202D0494D33
:101E8000A8421DD14FF67F752A404D894FF6FF7647
:101E900006EA05152A434FF6BF752A408D8806EAE3
:101EA00005152A434FF6FF352B404FF2FF752B40A7
:101EB0008D8906EA85052B43CD8906EA85052B43E6
:101EC00083800483CD880587028470BD70B50024AB
:101ED00000220023058C4FF6FF6635400584028CF6
:101EE0008388848B4FF68F752C404FF6FC752C4001
:101EF0000D882C434FF6FF552A400D894FF6FF768B
:101F000006EA05252A434D8806EA05252A431F4D82
:101F1000A84202D0234DA8421DD14FF2FF752A409E
:101F20004D894FF6FF7606EA05252A434FF6FF3521
:101F30002A408D8806EA05252A434EF6FF752B4078
:101F40004DF6FF752B408D8906EA05152B43CD898B
:101F500006EA05152B4383808483CD888587028418
:101F600070BD70B5002200230024058C4EF6FF766C
:101F700035400584038C8488828B48F6FF752A409F
:101F80004FF6FF452A400D8820E00000002C01405C
:101F90000004004000080040000C00400010004019
:101FA0000014004000340140004C0140005001404A
:101FB0000054014000180040001C00400020004078
:101FC0000040014000440140004801404FF6FF76C8
:101FD00006EA05252A434DF6FF752B400D8906EAD2
:101FE00005352B434D8806EA05352B43FA4DA842AB
:101FF00002D0FA4DA84208D14BF6FF752C408D89CE
:102000004FF6FF7606EA85152C4384808283CD88BF
:10201000A0F84050038470BD828B4FF2FF331A400A
:102020008283828B4FF6FF7303EA01231A43828374
:102030007047F0B50C461546002200210026078C9B
:102040004EF6FF7C07EA0C070784828B018C4FF663
:10205000FF7707EA043640F6FF473A404FF6FF772E
:1020600007EA05273A434FF6FF7707EA03373A4373
:10207000D94FB8420ED0D94FB8420BD0B0F1804FF3
:1020800008D0D74FB84205D0D64FB84202D0D64F6D
:10209000B84206D14DF6FF77394046F480573943B0
:1020A00005E047F6FF57394044F4805739438283AF
:1020B0000184F0BD828B4FF6F3731A408283828BCA
:1020C0000A4382837047F0B50C4615460022002172
:1020D0000026078C4FF6FF6C07EA0C070784828BFB
:1020E000018C4FF6FF7707EA04264FF60C773A404B
:1020F0004FF6FF7707EA03172F433A43B64FB8422C
:102100000ED0B64FB8420BD0B0F1804F08D0B44FCC
:10211000B84205D0B34FB84202D0B34FB84206D14F
:102120004FF6FF57394046F48077394305E04FF2C8
:10213000FF57394044F48077394382830184F0BDEE
:10214000028B4FF2FF331A400283028B4FF6FF736C
:1021500003EA01231A4302837047F0B50C46154683
:10216000002200210026078C4FF6EF7C07EA0C07BF
:102170000784028B018C4FF6FF7707EA041640F6BE
:10218000FF473A404FF6FF7707EA03373A434FF6E7
:10219000FF7707EA05273A438F4FB8420ED08F4F9B
:1021A000B8420BD0B0F1804F08D08D4FB84205D067
:1021B0008C4FB84202D08C4FB84206D14FF6DF7731
:1021C000394046F01007394305E04FF65F77394054
:1021D00044F01007394302830184F0BD028B4FF6AF
:1021E000F3731A400283028B0A4302837047F0B5EF
:1021F0000C46154600220021068C4FF6FE773E4025
:102200000684028B018C4FF60C7632407E1C06EA67
:1022100003162E433243704EB0420ED06F4EB04282
:102220000BD0B0F1804F08D06D4EB04205D06D4E4E
:10223000B04202D06C4EB04206D14FF6FD7631402E
:1022400044F00106314305E04FF6F576314044F0A5
:102250000106314302830184F0BD70B505460C468A
:102260005D4885420ED05D4885420BD0B5F1804F68
:1022700008D05B48854205D05A48854202D05A486A
:10228000854200D100E000BF208850B92389A28890
:1022900061882846FFF7ABFFE1882846FFF79EFFDD
:1022A00025E0208804280AD12389A288618828464D
:1022B000FFF753FFE1882846FFF742FF17E0208829
:1022C00008280AD12389A28861882846FFF7FBFEE7
:1022D000E1882846FFF7EEFE09E02389A28861889D
:1022E0002846FFF7A6FEE1882846FFF795FE70BD59
:1022F0002DE9F04105460C4600260127608808B903
:10230000022600E00026A088012801D1022700E073
:1023100001272088A0B92389A28861882846FFF771
:1023200066FFE1882846FFF759FF23893A46314680
:102330002846FFF712FFE1882846FFF701FF13E068
:102340002389A28861882846FFF707FFE18828468D
:10235000FFF7F6FE23893A4631462846FFF747FF46
:10236000E1882846FFF73AFFBDE8F0810A884B88EC
:102370001A438B881A43CB881A430B891A434B891B
:102380001A438B891A43A0F8442070474FF6FF7117
:10239000818000210180C18041800172704700214D
:1023A000018041808180C180018141818181C18121
:1023B0007047002101804180012181800021C1807E
:1023C000018170470021018041808180C1800181AD
:1023D0004181818170470000002C014000340140A0
:1023E0000004004000080040000C004021B10288B9
:1023F00042F00102028004E002884FF6FE731A40A8
:102400000280704731B1B0F8442042F40042A0F895
:10241000442005E0B0F84420C2F30E02A0F84420A6
:1024200070471AB183890B43838102E083898B4310
:10243000838170478182704741EA0203A0F84830E7
:1024400070471AB183890B43838102E083898B43F0
:102450008381704701894FF6F872114001817047FE
:102460000A46002101894FF68F73194011430181FB
:10247000704730B504460D4629462046FFF7F0FF69
:10248000208940F00700208130BD2DE9F04104464D
:102490000D4616461F46602D06D13B4601223146A9
:1024A0002046FFF75AFE05E03B4601223146204612
:1024B000FFF79DFE29462046FFF7D2FF208940F016
:1024C00007002081BDE8F08130B50C46002101896C
:1024D000C9B24FF6FF7505EA032515432543294385
:1024E000018130BD2DE9F04105460E46174698465C
:1024F000002443463A4631462846FFF7E5FF2C893B
:102500004FF6F870044044F007044FF68F70044013
:1025100044F070042C81BDE8F081F0B504460D460E
:1025200016461F463B46324629462046FFF7CCFF5B
:10253000208940F480402081F0BD0185828270476F
:102540000A46002101884FF68F731940114301801C
:102550007047F0B50C4615461E46002100220023A8
:102560000189028B038C4FF6F877394021434FF6EF
:10257000FC473A4040F201173A434FF6DD773B40C3
:102580004FF6FF7707EA06172F433B43018102838B
:102590000384F0BD0A460021018B4FF68F7319406A
:1025A0001143018370470A460021018B48F6FF73EF
:1025B00019404FF6FF7303EA022319430183704762
:1025C0000A460021818B4FF68F7319401143818396
:1025D00070470A460021818B48F6FF7319404FF679
:1025E000FF7303EA022319438183704721B10288F4
:1025F00042F08002028004E002884FF67F731A40A6
:102600000280704721B1828842F00402828004E097
:1026100082884FF6FB731A408280704721B182880E
:1026200042F00802828004E082884FF6F7731A4075
:102630008280704721B1828842F00102828004E0EA
:1026400082884FF6FE731A40828070470A46002146
:10265000018B4FF6F77319401143018370470A4607
:102660000021018B4FF2FF7319404FF6FF7303EA0D
:1026700002231943018370470A460021818B4FF6DC
:10268000F77319401143818370470A460021818BFB
:102690004FF2FF7319404FF6FF7303EA0223194309
:1026A000818370470A460021018B4FF6FB73194066
:1026B0001143018370470A460021018B4FF6FF3317
:1026C00019404FF6FF7303EA022319430183704751
:1026D0000A460021818B4FF6FB7319401143818319
:1026E00070470A460021818B4FF6FF3319404FF6A1
:1026F000FF7303EA02231943818370470A460021CE
:10270000018B4FF67F7319401143018370470A46CE
:102710000021018BC1F30E014FF6FF7303EA022380
:102720001943018370470A460021818B4FF67F735E
:1027300019401143818370470A460021818BC1F300
:102740000E014FF6FF7303EA02231943818370479A
:102750000A460021018C4FF6FD7319401143018494
:1027600070470A460021018C4FF6F7731940114358
:10277000018470470A460021018C4FF6DF7319402F
:102780004FF6FF7303EA02131943018470470A46A8
:102790000021018C4FF67F7319404FF6FF7303EA57
:1027A00002131943018470470A460021018C4FF639
:1027B000FF5319404FF6FF7303EA022319430184C4
:1027C00070470A460021018C4FF2FF7319404FF603
:1027D000FF7303EA02231943018470470A4600216C
:1027E000018C4DF6FF7319404FF6FF7303EA023375
:1027F00019430184704730B5002301248C40A3B2F3
:10280000048C9C430484048C02FA01F5ADB22C4381
:10281000048430BD30B5002304248C40A3B2048C62
:102820009C430484048C02FA01F5ADB22C43048469
:1028300030BD70B50346002000241846183001252D
:102840008D40ACB21D8CA5431D8409B1082909D166
:1028500000EB6100056825F070050560056815430B
:1028600005600EE00D1FC5F34E052844056825F4EC
:10287000E045056005684FF6FF7606EA0226354317
:10288000056070BD21B1028842F00202028004E0BE
:1028900002884FF6FD731A400280704721B102880A
:1028A00042F00402028004E002884FF6FB731A40F3
:1028B0000280704721B1828842F08002828004E069
:1028C00082884FF67F731A408280704702884FF6E5
:1028D000F7731A40028002880A4302807047828898
:1028E0004FF68F731A40828082880A438280704735
:1028F00002894FF6F8731A40028102890A43028165
:10290000704702894FF67F731A40028102890A4399
:102910000281704781847047818570478186704746
:102920000187704781877047A0F840107047028880
:102930004FF6FF431A40028002880A430280704724
:102940000146888E70470146088F70470146888F80
:1029500070470146B1F8400070470146888C7047C7
:102960000146088D704702460020138A0B400BB1C8
:10297000012000E000207047CA430282704730B552
:102980000246002000230024158A05EA01039589E8
:1029900005EA010413B10CB1012000E0002030BDB4
:1029A000CA4302827047000010B50446FB488442C7
:1029B00009D101218803FEF713FC00214FF4804068
:1029C000FEF70EFC32E0F648844209D101214804AA
:1029D000FEF713FC00214FF40030FEF70EFC25E05B
:1029E000F048844209D101218804FEF706FC002149
:1029F0004FF48020FEF701FC18E0EB48844209D137
:102A00000121C804FEF7F9FB00214FF40020FEF776
:102A1000F4FB0BE0E548844208D101210805FEF7EC
:102A2000ECFB00214FF48010FEF7E7FB10BD2DE911
:102A3000F04786B005460E460024A24600BFA146D8
:102A40000027B08900B100BF2F462C8A4CF6FF70DA
:102A50000440F08804432C82AC894EF6F310044005
:102A6000B08831890843718908430443AC81AC8A3A
:102A70004FF6FF400440B0890443AC8201A8FEF742
:102A800028FBC648874202D1DDF810A001E0DDF83E
:102A90000CA0A88900F4004040B10AEBCA0000EB8A
:102AA0000A1031684900B0FBF1F807E00AEBCA00F0
:102AB00000EB0A1031688900B0FBF1F86420B8FB24
:102AC000F0F004012009642101FB1089A88900F4B9
:102AD000004040B1322000EBC900B0FBF1F000F043
:102AE0000700044308E0322000EB09106421B0FB2A
:102AF000F1F000F00F0004432C8106B0BDE8F08730
:102B00004FF41651016000218180C18001810C21A8
:102B1000418100218181704710B502460020108A52
:102B20004FF2FF0318400B884C8823438C882343C3
:102B3000CC8823431843108210BD002101804180BE
:102B40008180C180704721B1828942F40052828124
:102B500004E082894DF6FF731A4082817047F0B518
:102B60000346002400260025002040F66A17B942DB
:102B700000D100BF1846C1F3421401F01F0601271F
:102B800007FA06F5012C01D10C3004E0022C01D12A
:102B9000103000E014301AB107682F43076002E0DC
:102BA0000768AF430760F0BD1AB1838A0B43838285
:102BB00002E0838A8B4383827047028A4FF6F07368
:102BC0001A400282028A0A430282704782894FF2C7
:102BD000FF731A40828182890A438281704721B142
:102BE000828942F00202828104E082894FF6FD73FD
:102BF0001A4082817047028A4FF6DF731A400282C0
:102C0000028A0A430282704721B1028A42F480425A
:102C1000028204E0028A4BF6FF731A400282704778
:102C2000C1F308028280704701468888C0F308001B
:102C30007047818941F0010181817047028BD2B2D6
:102C40000283028B42EA012202837047028B02F464
:102C50007F420283028B0A430283704721B1828A3A
:102C600042F02002828204E0828A4FF6DF731A402B
:102C70008282704721B1828A42F01002828204E08F
:102C8000828A4FF6EF731A408282704721B1828A9E
:102C900042F00802828204E0828A4FF6F7731A40FB
:102CA0008282704721B1828942F40042828103E02E
:102CB0008289C2F30E028281704721B1828A42F476
:102CC0000062828204E0828A4FF2FF731A4082829D
:102CD0007047828A4FF6FB731A408282828A0A43C7
:102CE0008282704721B1828A42F00202828204E02D
:102CF000828A4FF6FD731A40828270470246002096
:102D0000B1F5007F00D100BF13880B400BB101204B
:102D100000E00020704701F40072B2F5007F00D19E
:102D200000BFCA430280704770B5024600240023EA
:102D30000025002040F66A16B14200D100BFC1F361
:102D4000421501F01F03012606FA03F3012D02D1FB
:102D50009689334006E0022D02D1168A334001E005
:102D6000968A33400C12012606FA04F41688344081
:102D700013B10CB1012000E0002070BD10B500229D
:102D8000002340F66A14A14200D100BF0A120124B8
:102D90009440A3B2DC43048010BD00000038014021
:102DA0000044004000480040004C004000500040FB
:102DB00010B5FEF78DF84FF48030FEF7A9F800BF8C
:102DC0003120FEF7C8F80028FAD01020FEF766FA86
:102DD0000220FEF74FFA0020FEF71FF90020FEF751
:102DE0002EF94FF48060FEF721F94FF4E0114FF413
:102DF0008030FEF7F5F80120FEF7FEF800BF39201D
:102E0000FEF7A9F80028FAD00220FEF7F8F800BF74
:102E1000FEF7FEF80828FBD110BD08B500214FF0E1
:102E20000060FEF71EF84FF4A060FDF7E3FF1C20E2
:102E30008DF8000000208DF801008DF802000120BF
:102E40008DF803006846FDF7DAFF1E208DF80000BC
:102E500000208DF8010001208DF802008DF803009C
:102E60006846FDF7CCFF08BD064C074D06E0E0685C
:102E700040F0010394E8070098471034AC42F6D3C1
:102E8000FDF738F9AC2E0008CC2E000802E008C887
:102E9000121F08C1002AFAD170477047002001E0D4
:102EA00001C1121F002AFBD170470000CC2E000880
:102EB00000000020480000008C2E0008142F00089D
:102EC00048000020800400009C2E000800A24A0454
:102ED00000000000000000000102030406070809CA
:102EE00000000000000000000000000000000000E2
:102EF00000000000000000000000000000000000D2
:102F0000000000000102030401020304060708098F
:042F100002040608A9
:04000005080000ED02
:00000001FF
